:020000040800F2
:1000000088B20120A10200082D6E0008E1640008FA
:10001000296E000899170008F57900080000000013
:10002000000000000000000000000000BD7100089A
:10003000B517000800000000316E0008C17100080B
:10004000BB020008BB020008BB0200080D700008DC
:10005000BB020008BB020008BB020008BB0200088C
:10006000BB020008BB020008BB0200089D17000885
:10007000BB020008BB020008BB020008BB0200086C
:10008000A9170008BB020008BB020008BB02000859
:10009000BB020008BB020008BB020008BB0200084C
:1000A000BB020008BB020008BB020008BB0200083C
:1000B00085720008917200089D720008BB0200085A
:1000C000BB020008BB020008BB020008BB0200081C
:1000D000BB020008BB020008E9790008BB02000867
:1000E000BB020008BB020008BB020008A97200089E
:1000F000BB020008BB020008BB020008BB020008EC
:10010000BB020008BB020008BB020008BB020008DB
:10011000BB020008BB020008BB020008BB020008CB
:10012000BB020008BB020008BB020008BB020008BB
:10013000BB020008BB020008BB020008BB020008AB
:10014000BB020008BB020008BB020008BB0200089B
:10015000BB020008BB020008BB020008BB0200088B
:10016000BB020008BB020008BB020008BB0200087B
:10017000BB020008BB020008BB0200080000000030
:10018000BB020008BB02000800F002F800F079F89A
:100190000AA090E8000C82448344AAF10107DA45E2
:1001A00001D100F06EF8AFF2090EBAE80F0013F0BB
:1001B000010F18BFFB1A43F00103184714CA0900C6
:1001C00034CA09000A444FF0000C10F8013B13F048
:1001D000070408BF10F8014B1D1108BF10F8015BA0
:1001E000641E05D010F8016B641E01F8016BF9D193
:1001F00013F0080F1EBF10F8014BAD1C0C1B09D1EA
:100200006D1E58BF01F801CBFAD505E014F8016B5B
:1002100001F8016B6D1EF9D59142D6D370470000ED
:100220000023002400250026103A28BF78C1FBD8FF
:10023000520728BF30C148BF0B607047662908F0DD
:10024000CCA4642900F0A881752900F0A581782943
:1002500000F0DE81632900F0F086002070471FB5B2
:1002600048F0A9FC9DE8030000F010FC00F008FF36
:1002700004000020002147F097FDE0601FBD10B58D
:1002800010BD01F022F81146FFF7E9FF34F044FFFA
:1002900001F040F803B4FFF7F2FF03BC09F09EFF42
:1002A0000948804709480047FEE7FEE7FEE7FEE70A
:1002B000FEE7FEE7FEE7FEE7FEE7FEE70448054946
:1002C000054A064B7047000071720008890100085A
:1002D0008872012088B20120889201208892012032
:1002E000704770B5064600F0B5FB056806F10B00D7
:1002F00020F00704B4429CBF002070BD2B466A6802
:10030000BAB11068A04210D304F1080188423CBF82
:100310005068586007D35168101941601168091B73
:10032000016058601460101D70BD13465268002AA9
:10033000E7D12146284600F095FB0028DED170BDAC
:1003400070B50446051F00F085FB0068002C14BF43
:10035000446870BD002C18BFAC423CBF20466468A6
:10036000F8D301680A18AA4218BF456003D12A6869
:1003700005461144016028684119A1421CBF6C6008
:1003800070BD6168696021680844286070BD53EAE7
:10039000020C00F069802DE9F04B4FF00006002BB5
:1003A0001FBFB3FA83F503FA05F424FA05F65E409D
:1003B00012BF1643B2FA82F502FA05F4C5F1200520
:1003C0001EBF22FA05FC44EA0C04203556EA044C10
:1003D0004FEA144418BF641C4FF000084FF00009A6
:1003E000904271EB030C39D3002919BFB1FA81F7A0
:1003F00001FA07F6B0FA80F700FA07F6C7F120070E
:100400001EBF20FA07FC46EA0C062037B6FBF4FCB8
:10041000A7EB0507103F07F01F0BCBF120062CFAC6
:1004200006F60CFA0BFB44BFB3460026202FA4BFF0
:100430005E464FF0000B5BEA060C08BF4FF0010B65
:1004400019EB0B0948EB0608ABFB027C06FB02CC60
:100450000BFB03CCC01B71EB0C01C1E70B46024642
:1004600041464846BDE8F08B13B54FF000004FF011
:100470000001AFF30080BDE81C4070470FB4044991
:1004800010B503AA029800F0E5FD10BC5DF814FB5E
:100490002C2300200FB41CB5084B06AA7B446946E8
:1004A0000090059800F09FFD04460020694600F08A
:1004B000ADFD20461CBC5DF814FB00006D0B000078
:1004C0000FB47CB50C0009AA009001D02044401E56
:1004D000084B7B4469460190089800F084FD05466E
:1004E0001CB10020694600F091FD28467CBC5DF8F7
:1004F00014FB0000410B000070B5044685690068DC
:10050000C10601D5302600E02026C00707D070BD07
:10051000D4E9012130469047206A401C20626D1EBC
:10052000F6D570BD70B5044685690078C00707D15F
:1005300070BDD4E9012120209047206A401C206230
:100540006D1EF6D570BD70B50C460546012A05D066
:100550002878800600D5EA69002302E0012305E03F
:100560005B1C934202D2E05C0028F9D1A869E6182E
:10057000C01AA861286A184428622846FFF7BCFF01
:1005800004E0D5E9012114F8010B9047B442F8D3F7
:100590002846FFF7C7FF70BD2DE9F041064600244D
:1005A00010687529314616A510D0AFF300800028D9
:1005B00002DA404213A507E031688A0701D512A587
:1005C00002E0490704D511A5012401E0AFF3008042
:1005D00000210A2206F1240709E0B0FBF2FCB0FB7F
:1005E000F2F302FB1C00303078541846491C0028F6
:1005F000F3D123462A463046BDE8F04100F087BAE1
:10060000000000002D0000002B0000002000000072
:1006100070B504460D4621461068AFF3008021886E
:10062000090502D50F4A7A4402E00E4A7A440E3296
:10063000002104F1240305E000F00F060009965D97
:100640005E54491C0028F7D120780023000704D508
:10065000702D02D009B1022311322046BDE870404E
:1006600000F055BA428804002DE9F05F894604463F
:100670004FF0000ADFF824B1FB44C0F820A0204668
:10068000E168884700287DD0252806D0D4E90121DB
:100690009047206A401C2062F1E700255F46204613
:1006A000E16888472028064607DB312E05D2B819B5
:1006B00010F8200C08B10543F1E7A80701D525F093
:1006C0000405C4F81CA00027C4F818A02A2E09D0DD
:1006D000304645F0D6FD38B304EB8708303EC8F805
:1006E000186019E059F8041B204604EB8702916159
:1006F000E1688847012F064618D1E069002820DA12
:1007000025F020051DE0D8F8180000EB800006EB6E
:1007100040003038C8F818002046E168884706468F
:1007200045F0AFFD0028EED1012F0AD02E2E08D1C2
:100730002046E16888477F1C0646022F45F02005C9
:10074000C4DBA069002803DA404245F00105A0613E
:10075000E80701D025F01005A6B1A6F1410019283F
:1007600002D8203645F400654A46314620462560C9
:100770004D46FFF763FD60B1012807D0ED1D25F060
:10078000070000E007E000F1080978E705F1040937
:1007900075E730467AE7206ABDE8F09F18880400C4
:1007A00001490DF03BBF00002C23002010B504468A
:1007B00003E00DF033FF401C09D014F8010B05498C
:1007C0000028F6D1BDE810400A200DF027BF4FF0F9
:1007D000FF3010BD2C23002040EA010310B59B0719
:1007E0000FD1042A0DD310C808C9121F9C42F8D09B
:1007F00020BA19BA884201D9012010BD4FF0FF304C
:1008000010BD1AB1D30703D0521C07E0002010BD61
:1008100010F8013B11F8014B1B1B07D110F8013BED
:1008200011F8014B1B1B01D1921EF1D1184610BDCE
:1008300040EA0103024630B59B0710D14FF0013466
:1008400000E008C208C91D1B9D4315EAC41FF8D06B
:1008500013F0FF0102F8011B0DD01B0AF8E711F895
:10086000013B002B02F8013B05D011F8013B002BA6
:1008700002F8013BF3D130BD10B5431C02E010F883
:10088000011B71B18107FAD14FF0013202C88C1AF5
:100890008C4314EAC211F9D0C01A0A0603D0C01E54
:1008A00010BDC01A10BD0A0401D0801E10BD09027F
:1008B000FCD0401E10BD10B5203AC0F00B80B1E84E
:1008C0001850A0E81850B1E81850A0E81850203A85
:1008D000BFF4F5AF5FEA027C24BFB1E81850A0E88E
:1008E000185044BF18C918C0BDE810405FEA827CA8
:1008F00024BF51F8043B40F8043B08BF7047D207BF
:1009000028BF31F8023B48BF11F8012B28BF20F85F
:10091000023B48BF00F8012B704702F0FF0343EA97
:10092000032242EA024200F00AB802F0FF0343EA5F
:10093000032242EA024200F024B84FF000020429E8
:10094000C0F0128010F0030C00F01B80CCF1040CFE
:10095000BCF1020F18BF00F8012BA8BF20F8022B32
:10096000A1EB0C0100F00DB85FEAC17C24BF00F8D8
:10097000012B00F8012B48BF00F8012B70474FF006
:10098000000200B5134694469646203922BFA0E8DF
:100990000C50A0E80C50B1F12001BFF4F7AF0907EB
:1009A00028BFA0E80C5048BF0CC05DF804EB8900DC
:1009B00028BF40F8042B08BF704748BF20F8022B1F
:1009C00011F0804F18BF00F8012B704700000000A5
:1009D00030B44FF0013C50F8042B51F8043BCCFAF2
:1009E00052F4D51A20D1FCB950F8042B51F8043B2D
:1009F000CCFA52F4D51A17D1B4B950F8042B51F8E7
:100A0000043BCCFA52F4D51A0ED16CB950F8042B31
:100A100051F8043BCCFA52F4D51A05D1002CDAD0A7
:100A200030BC4FF00000704729BAB1FA81F111F0E3
:100A30001801D1F120008440F2D1CA40CB4012F01D
:100A4000FF0213F0FF0330BCD01A704770477047A5
:100A50007047704700487047D010002070477047BB
:100A60007047704738B504460A4600206946AFF320
:100A70000080002808BF38BD02460099204600F0DB
:100A800007FB012038BD012000F018BCF8B5AFF31A
:100A90000080054600200C46102000BF0646A8191D
:100AA000A0420DD9324669460020AFF3008007000E
:100AB00008BF00F003FC0098A04218BF0546C41907
:100AC000FFF7C8FF05600746F01D20F00700461934
:100AD000284600F00AF8B44208BFF8BDA21B314610
:100AE0003868BDE8F84000F0D3BA00210160C0E9E1
:100AF000011070471020704710B500F0C5FA00686B
:100B000010BD10B5044600F0BFFA046010BD2DE919
:100B1000F0470D4699469246044600F124080168C4
:100B2000880604D5E06921F01001216000E0012071
:100B3000A84201DD471B00E00027A1697A1902EBFA
:100B40000900081AA0612078C00602D42046FFF7E9
:100B5000D3FC002608E0D4E901211AF806009047EA
:100B6000206A401C761C20624E45F4DB2078C006CB
:100B70000AD52046FFF7C0FC06E0D4E90121302069
:100B80009047206A401C2062381EA7F10107F4DC60
:100B900007E0D4E9012118F805009047206A401CBD
:100BA0002062281EA5F10105F3DC2046FFF7BAFC00
:100BB0002078000602D50220BDE8F0870120FBE77F
:100BC0002DE9FF4F0C461E464FF0FF378BB0D2E9A0
:100BD0000001DDF860800A908A46C1F30A5505B924
:100BE0003D46002108464FF00000BAF1000F00F426
:100BF000400005DA00EB80004FF4400101EA5000AC
:100C00004FEA9059B9F1010F00DDB9460A9850EA50
:100C10004A000ED044F61050A5F2FF3545432F147C
:100C2000B8F1000F1ED07542291E1EDDC9F1000269
:100C30001CE0B8F1010F4FF0000001D0302103E0BB
:100C4000F24305E02154401CB042FBDB3046002259
:100C5000002121540B99C1F80880C1E900200FB090
:100C6000BDE8F08FBD1B6D1CDEE74A4600DA694225
:100C700006A800F0ADFA06AB93E8070003AB83E8E3
:100C8000070050460A9942F09EFF8DE80700A0F544
:100C900000501F3800900398002D0ADD42F21F011A
:100CA0004A460844002303A90390684643F007FA24
:100CB00009E0A0F500504A461F38002303A903901D
:100CC000684643F011FA8DE807000004000C03D0D9
:100CD0004FF0FF30410800E01046B8F1000F03D09C
:100CE0000022009215461EE0751E05D400F0EAF9B8
:100CF000303262556D1EF9D5B3460122084302D049
:100D000000227F1C04E02078302801D100227F1EC1
:100D1000002A099784D01DE0112D07DA00F0D2F9DE
:100D2000303262556D1C50EA0102F5D1084302D001
:100D30000098C8B10EE00021681E05E0235C625CEB
:100D400063542254401E491C8142F7DBAB46A81B6A
:100D5000401E0990002004F80B000B98099AC0F877
:100D60000880C0E9002B7AE711264FF0000857E70A
:100D70002DE9F04F88460446D21D22F0070191B0BC
:100D8000D1E90001CDE90A0143F0E5FA02460B98EA
:100D9000C00F01D02D2007E02068810701D52B204E
:100DA00002E0202101EAC000032A099001D0072AAD
:100DB00005DB03464146204600F0CAF90BE12078E6
:100DC000800601D5E06900E00620B8F1650F814694
:100DD00006D0B8F1660F18D0B8F1670F70D131E0C6
:100DE0000020B9F1110F009001DB112301E009F19E
:100DF00001030AAA01A90CA8FFF7E2FEDDE90C70C5
:100E0000002609F10105834647E001204B4600908A
:100E10004FF000470AAA01A90CA8FFF7D1FEDDE9AF
:100E20000DB00C995D46002610B909F101000D18AE
:100E3000B9EB050003D4C0F1FF3609F10105A5EBBC
:100E400009002BE0B9F1010F01DA4FF00109002090
:100E5000B9F1110F0090484601DD112300E003466F
:100E60000AAA01A90CA8FFF7ABFEDDE90C704D46FC
:100E700000268346207800070AD4AB4500DA5D4699
:100E800001A8012D04DD411911F8011C302907D0FA
:100E90004F4502DA17F1040F04DA012082460FE011
:100EA0006D1EEEE7002F02DCED1B3E4403E0781CD4
:100EB000A84200DD7D1CB81B00F1010A4FF000477D
:100EC0002078000703D4AA4501DB4FF0FF3A002148
:100ED000B7F1004F0DF143088DF8431024D00220E4
:100EE0002B23002F01DA7F422D230A21021EA0F1BD
:100EF000010000DC5FB197FBF1FC97FBF1F201FB15
:100F00001C7C17460CF1300C08F801CDEEE7A8F177
:100F1000010003702188090501D5452100E0652104
:100F2000A0F1010800F8011C09980FA9A1EB08071E
:100F3000FF1D00B10120411901EBEA70A16938449D
:100F4000081A401EA0612078C00602D42046FFF790
:100F5000D3FA099828B1D4E901219047206A401CAE
:100F600020622078C00622D52046FFF7C5FA1EE091
:100F7000002E04DBB34502DD01A8805D00E03020D7
:100F8000D4E901219047206A401C2062761CAAF116
:100F900001005FEA000A0AD100F072F8C068016837
:100FA000405CD4E901219047206A401C2062281E41
:100FB000A5F10105DCDC07E0D4E9012118F8010BFB
:100FC0009047206A401C2062381EA7F10107F3DC1D
:100FD0002046FFF7A7FA032011B041E601694A1C39
:100FE00002610878704700B58FB0CDE9013100216A
:100FF000059105497944CDE9031011466846FFF78C
:1010000033FB0FB000BD0000E5FFFFFF0A6802F8E8
:10101000010B0A607047D1E900239A4202D2531CA7
:101020000B601070704710B5436913B1AFF30080C7
:1010300001E0FFF788FA012010BD127800F12401C9
:101040000A7000224A700122EDE711684FF0FF326A
:10105000E9E70000074B70B50D467B44FFF7C3FF7F
:101060000446284600F026F910B14FF0FF3070BD5D
:10107000204670BDBFD5000000487047C810002052
:1010800000487047E810002000487047C810002052
:10109000034640688C46002818BF88423CBF034680
:1010A0004068F8D318681844884207D00CF1030050
:1010B00020F00700001D411A521A0146081D0A605F
:1010C000FFF73EB930B5B0F10A0271F100034FEA03
:1010D000900E4EEA817EB0EB0E0061EB91014FEA7B
:1010E000101E4EEA017E10EB0E0041EB11114FEA8B
:1010F000102E4EEA016E10EB0E0041EB11214FEA6B
:10110000104E4EEA014E10EB0E0041EB114140181B
:1011100041F100014FEAD00040EA41704FEAD101AD
:101120004FEA810444EA907410EB800544EB01041B
:101130006D1944EB0404521BA3414FF0000348BF58
:101140000A3200D530BD401C41F1000130BD000025
:101150002DE9F0411F46044603260168072A01F4E1
:10116000006004DB08B116A505E016A503E008B190
:1011700015A500E015A521F010002060A069C01E93
:10118000A0610FB1401EA0612046FFF7B5F94FB135
:10119000D4E9012138469047206A401C2062C01CD7
:1011A000206206E0206AFAE7D4E9012115F8010B74
:1011B0009047761EF8D22046FFF7B4F9BDE8F081DB
:1011C0004E414E006E616E00494E4600696E6600EB
:1011D0002DE9F047814616468AB0354878440DC857
:1011E0008DE80D0032487844801C03AC0DC884E8BB
:1011F0000D0041F69B300844372190FBF1F290FB43
:10120000F1F5A5F1800501FB12041B3C02D56442F7
:10121000012000E00020DFF898A080460027FA4473
:10122000AAF1BE0A0EE0E0070AD03246684607EB94
:10123000470101230AEB810142F056FF8DE80700C8
:1012400064107F1C002CEED1194F7F44AE3F19E093
:10125000E80715D007EB04100DF1180A90E80E000E
:101260008AE80E00C068F04201D198190890324611
:10127000012306A903A842F037FF03AB83E8070068
:101280006D10641C002DE3D14FF001033246694616
:10129000B8F1000F03A802D042F011FF01E042F0C4
:1012A00023FFC9E90001C9F808200AB0BDE8F087AA
:1012B000447F0400007B00F08000704710B500F010
:1012C00037F8BDE8104000F02EB87546FFF7D4FEA1
:1012D000AE4605006946534620F00700854618B023
:1012E00020B5FEF7EBFFBDE820404FF000064FF0C1
:1012F00000074FF000084FF0000BAC46ACE8C00907
:10130000ACE8C009ACE8C009ACE8C00921F00701AD
:101310008D46704710B50446AFF300802046BDE807
:101320001040FEF7B7BF002801D008F057BF704744
:1013300010B5012805D0002103A000F021F80120FC
:1013400010BD09A1F8E7000053494752544D454DDF
:101350003A204F7574206F662068656170206D6556
:101360006D6F7279000000003A2048656170206D51
:10137000656D6F727920636F727275707465640049
:1013800070B505460C460A2000E06D1C08F028FFE9
:1013900035B128780028F8D102E0641C08F020FF5D
:1013A00014B120780028F8D1BDE870400A2008F078
:1013B00017BF000080B582B0E1200DF10702702157
:1013C00001238DF807004FF6FF70009042F6D420FD
:1013D000C2F2000001F0B4F902B080BD00000000CC
:1013E000F0B583B0054642F6D4200C464FF6FF77A1
:1013F0000DF1050271210623C2F20000009700F0F2
:1014000075FE9DF80560300710D4BA200DF10B026F
:101410007021012300978DF80B0042F6D420C2F210
:10142000000001F08DF9142000F088FC70B2002853
:101430003ADB9DF807109DF806009DF808609DF8BE
:101440000970090141EA003040EA161046F096FFA3
:101450009FED170B53EC102B47F01CF89FED160B6C
:1014600006F00F023B0243EA024653EC102B47F012
:1014700011F89DF80A20164446F0B8FC02EE106AF6
:101480009FED0F0A9FED0F1AB8EE422A2860002048
:1014900022EE000A9FED0C2A20EE010A30EE020A2D
:1014A00084ED000A03B0F0BD012003B0F0BD00BF21
:1014B0000000000000005940000000000000B03EA5
:1014C0000000803500004843000048C280B582B06B
:1014D00000200DF10502702103238DF8070043F26F
:1014E000AC30ADF805004FF6FF70009042F6D42006
:1014F000C2F2000001F024F902B080BD10B582B044
:1015000042F2146041F2341401A90022C2F2000038
:10151000C2F200040190204609F09CFBC1B231B137
:10152000020A0AA0FEF7AAFF00F046F902E011A0A5
:10153000FFF73CF92068002109F010FC60600021F1
:10154000206809F01BFCA06002B010BD61695F66F5
:10155000636E5F637265617465206572726F72207D
:101560002D20747970653D256420636F64653D2589
:10157000640D0A0046434E20414920696E6974207B
:1015800073756363657373210D00000010B582B03D
:1015900046F21C6041F2281401A90022C2F20100A7
:1015A000C2F200040190204609F00AFCC1B231B138
:1015B000020A0AA0FEF762FF00F0FEF802E011A0A6
:1015C000FFF7F4F82068002109F07EFC606000213C
:1015D000206809F089FCA06002B010BD61695F72EB
:1015E0006E6E5F637265617465206572726F7220E2
:1015F0002D20747970653D256420636F64653D25F9
:10160000640D0A00524E4E20414920696E697420D3
:1016100073756363657373210D00000010B541F2AB
:101620003414C2F2000463685860A268516019461D
:10163000206809F0B3FB012808BF10BD206809F03D
:101640006FFBC1B2020A03A0FEF718FFBDE810400D
:1016500000F0B2B841492061695F6E6574776F72BE
:101660006B5F72756E206572726F72202D207479B7
:1016700070653D256420636F64653D25640D0A0037
:1016800010B541F22814C2F2000463685860A268E1
:1016900051601946206809F037FC012808BF10BDC9
:1016A000206809F0F3FBC1B2020A03A0FEF7E6FED0
:1016B000BDE8104000F080B841492061695F726E5A
:1016C0006E5F72756E206572726F72202D20747954
:1016D00070653D256420636F64653D25640D0A00D7
:1016E00080B582B001200DF10702462101238DF85B
:1016F00007004FF6FF70009042F6D420C2F20000BF
:1017000001F01EF802A0FFF751F802B080BD00BF43
:1017100042483137353020696E697400000000009E
:10172000B0B582B004464FF6FF700DF106024621B7
:101730000223009042F6D420C2F2000000F0D6FC52
:101740009DF806509DF8070040EA052046F0FFFD91
:101750009FED050B53EC102B46F036FC46F046FB94
:101760002060E80902B0B0BD333333333333F33F85
:1017700080B582B020200DF10702462101238DF8AB
:1017800007004FF6FF70009042F6D420C2F200002E
:1017900000F0D6FF02B080BDFEE7000042F6142044
:1017A000C2F2000000F0E4B842F67420C2F2000079
:1017B00000F0DEB87047000072B600BFFEE7000020
:1017C000B3F5804F1BD1B0B5002350F822C0CCF642
:1017D000F0730CEA030CD1E9003ED1E902458969B6
:1017E00043EA0C0343EA0E1343EA0423194341EA94
:1017F0000541BDE8B04040F82210002070476FF06E
:10180000704140F8221000207047000070B50A684F
:1018100001F1280650F8223023F0010340F822306D
:10182000D1E900C3D1E9022E1343082A08BF43F0CF
:10183000400343EA0E020B691A434B691A43CB6912
:1018400042EA030ED1E9083270CE43EA0E031A438E
:101850008B69C96B22432A4332431A4380231143C5
:1018600050F82C20CFF6F0731A40114340F82C109A
:10187000002070BDF0B500EB820001F10C060027DE
:10188000426891E8085070CECFF6F077896907EB8F
:10189000055502F040421A4342EA0C1242EA0E2277
:1018A00042EA04422A43114306F1FE0241EA026180
:1018B00041600020F0BD000070B5866D044600F068
:1018C00041FB054694F8350002282BD120680168B9
:1018D00021F016010160416921F080014161216C14
:1018E00009B9A16C19B1016821F008010160016812
:1018F00021F0010101600068C00705D119E000BFB7
:1019000020680068C00714D000F01CFB401B0528AD
:10191000F6D920206065032084F83500002184F882
:10192000341070BD802060650120002184F83410DF
:1019300070BDE06D3F2101FA00F0B060012084F835
:1019400035000020002184F8341070BD90F8351067
:10195000022909D1052180F835100068016821F0BD
:10196000010101600020704780214165012070471E
:10197000F0B581B00446002048F2B513082100906C
:1019800040F6B800C1F64E33C2F200000268D4E956
:10199000166037688140A2FB032539420CD02268CB
:1019A00013685B0708D5136823F004031360B16064
:1019B000616D41F00101616501218140394208D02A
:1019C00022685269120604D5B160616D41F00201CE
:1019D000616504218140394208D02268126892076B
:1019E00004D5B160616D41F0040161651021814051
:1019F000394217D020680268120713D5B160026817
:101A00000168520308D4C9055EBF016821F00801CE
:101A10000160216C21B905E0080344D4216C09B1AF
:101A200020468847E16D202000FA01F23A4247D073
:101A300020680368DB0643D5B26094F8353002684D
:101A4000052B1ED122F016020260426922F08002AC
:101A50004261226C0AB9A26C1AB1026822F0080233
:101A600002603F208840B060002084F834000120EC
:101A700084F83500216D00295AD02046884701B0EE
:101A8000F0BD0168520312D4C90515D4016821F0D4
:101A900010010160002084F83400012084F8350032
:101AA000E16B59B90CE0A16C0029B9D1BAE7080380
:101AB00002D4616C11B903E0E16B09B1204688479B
:101AC000606DA8B3606DC0072ED00521A80A84F808
:101AD000351021680A6822F001020A60009A01327A
:101AE000824200921AD80A68D20717D0009A0132AF
:101AF0008242009212D80A68D2070FD0009A0132AF
:101B0000824200920AD80A68D20707D0009A0132AE
:101B10008242009202D80A68D207DFD1002084F8FE
:101B20003400012084F83500E16C09B12046884773
:101B300001B0F0BD2DE9F041044600F003FA002C9D
:101B400004BF0120BDE8F0810546002084F8340080
:101B5000022084F835002168086820F00100086040
:101B60000868C00704D110E021680868C0070CD0DD
:101B700000F0E8F9401B0528F6D9032520230320AF
:101B8000636584F83550BDE8F08148F23F0208688B
:101B9000D4E9013504F10C08CFF2100200EA020C7E
:101BA00098E8C101D4E9072E43EA0C032B431843FC
:101BB000636A30433843042B40EA080040EA0200DD
:101BC00040EA0E021DD1D4E90BE042EA0E02BEF15A
:101BD000000F40EA020008604869A26A20F0030092
:101BE00040EA020040F0040C11D0B8F5005F34D098
:101BF000B8F1000F42D1022A43D0012A37D032B9BE
:101C00003FE00A60486920F0070040EA030C6FF0EB
:101C10000F0040F2FF32C1F814C00023012550FA32
:101C200081F091434AF6AB22CAF6AA225F2888BF08
:101C30000431A165A0FB0202100942F67C62C0F6E5
:101C40000502105C3F22E06502FA00F08860002087
:101C5000636584F83550BDE8F081032AD7D80125A3
:101C600040230120DFE802F0020D0203F0E7AEF1AD
:101C7000C070B0FA80F0400938B9C8E7032A04D32D
:101C8000C5D1CEF300600028C1D00125402301203A
:101C9000636584F83550BDE8F0810000B0B590F878
:101CA00034C0BCF1010F47D04FF0010CD0F858E020
:101CB00080F834C090F835C0BCF1010F39D14FF035
:101CC000020C80F835C04FF0000CC0F854C0D0F8BA
:101CD00000C08468DCF80050402C25F48025CCF846
:101CE0000050CCF804300B4608BF1346CCF808303F
:101CF00008BF0A46CCF80C20C16D3F2202FA01F160
:101D0000CEF80810DCF8001041F01601CCF80010F5
:101D1000006C00281EBFDCF8000040F00800CCF882
:101D20000000DCF8000040F00100CCF800000020CA
:101D3000B0BD002180F834100220B0BDB0B504461B
:101D400000F000F9054640F27000611CC2F200008C
:101D5000007818BF044400BF00F0F4F8401BA04214
:101D6000FAD3B0BD2DE9F04F82B041F6004308220E
:101D70004FF0010A00264FF00008C4F20203984217
:101D800000F13E4308BF072203F1FF734FEAB32778
:101D9000072F4FF0000738BF4FEAB32200920A68BE
:101DA0000AFA08F912EA090F0FD100BF0236043708
:101DB00008F10108202E04BF02B0BDE8F08F0A68C8
:101DC0000AFA08F912EA090FF0D0D1F804C00CF0B1
:101DD000030AAAF10102012A16D803228468CD68F9
:101DE0004FEA480BB2409443B5406FEA020E2543D8
:101DF0008560CCF30015446805FA08F524EA090467
:101E0000254345600EE000BF0322BAF1030FB3463D
:101E100002FA06F26FEA020E04D1B3464FF0030A4B
:101E200021E000BFC2688C68BAF1020F02EA0E021C
:101E300004FA0BF442EA0402C26014D107F01C0257
:101E40000F2303FA02F56FF0030303EA5804044476
:101E5000236AAB430D6905FA02F21A432262D1F8F4
:101E600004C00CF0030A03680AFA0BF21CF4403FAA
:101E70004FF0010A03EA0E0342EA0302026095D022
:101E8000002243F6004C07F00C050F24019243F6A4
:101E90004402C4F2010CAC40C4F2020213461268C0
:101EA00042F480421A601A6802F48042019228F0DB
:101EB0000302019B62444FF60843CFF6FF739E4630
:101EC000D358A343009C04FA05F52B4342F80E3087
:101ED000DCF808204D6842EA0903EC0258BF22EA08
:101EE000090343F60C42CCF80830AC02C4F20102FC
:101EF0009646126842EA090358BF22EA0903CEF85F
:101F00000030AC03DCF8042042EA090358BF22EA9F
:101F10000903CCF80430ED03DCF8002042EA0903A1
:101F200058BF22EA0903CCF800303FE700690840B7
:101F300018BF012070470000002A08BF0904816112
:101F40007047000047F28420C2F201000068704729
:101F5000B0B5A8B3044690F83D0028B9002084F835
:101F60003C00204600F0B0FD242084F83D002068AD
:101F7000016821F001010160016841F40041016044
:101F8000016821F40041016000F0E0FF48F2804167
:101F900040F600120023C0F21E01C0F23D0288424A
:101FA0004FF0000138BF0121904248F2A16238BFD2
:101FB00001236568C0F20102954238BF0B460BB1A0
:101FC0000120B0BD4DF68361C4F21B31A0FB0112AC
:101FD00021684B6823F03F0343EA92434B60930C24
:101FE0000A6A22F03F0C48F2A062C0F20102954258
:101FF00013D85A1C01384CF6FF7342EA0C020A62ED
:102000006A00B0FBF2F001306FF31F30042898BF74
:102010000420CA6922EA030C3FE04FF49672A0F153
:10202000010E5A4344F6D353C1F26203A2FB0323C9
:10203000012202EB93124CF6FF7342EA0C020A6291
:10204000CA6922EA030CA3689BB1192004226843E1
:10205000BEFBF0F0013062F31F30000512D09BB1DF
:10206000192004226843BEFBF0F0013062F31F30F8
:1020700011E005EB4500BEFBF0F001306FF31F30BF
:102080000005ECD1012008E005EB4500BEFBF0F0B7
:1020900001306FF31F3040F4004040EA0C00C8618B
:1020A0000868D4E9072320F0C000104348F2FF324B
:1020B0001843086088689043D4E903231843104309
:1020C0008860C868D4E9052320F0FF001043184356
:1020D000C860086840F001000860002020212064EA
:1020E00084F83D10206384F83E00B0BD2DE9F04730
:1020F00082B01F46164689460446FFF723FF054671
:1021000094F83D00202822D1206800BF816989070A
:1021100019D5FFF717FF411B20681A29F6D38169EB
:102120008907F3D500202021206384F83D1084F82E
:102130003E0084F83C00206C40F020002064022027
:1021400002B0BDE8F08794F83C10012903D10220C9
:1021500002B0BDE8F08701210022DDF8288084F874
:102160003C10CFF6FF720168C90702BF016841F059
:1021700001010160016821F400610160222184F8FD
:102180003D10102184F83E10002121646785618D87
:10219000E26266622185E16A026842F4806211F5BA
:1021A000803F026018BF012940F09F80016841F420
:1021B0008071016018F101061FD04169C90729D15A
:1021C000B8F1000F0ED000BFFFF7BCFE411B206826
:1021D000414503D94169C90700F030814169C90708
:1021E000F2D017E0FFF7AEFE20684169C90700F0A2
:1021F00025814169C907F5D00CE04169C90709D1BA
:102200004169C90704BF41695FEAC17102D14169EF
:10221000C907F2D02169B1F5804F25D149F00101FC
:10222000C9B2002E016100F02F814169890700F1D8
:102230005B814169B8F1000F01F4806164D000292D
:1022400040F03A81FFF77EFE411B2068414503D9EB
:102250004169890740F166824169890700F144813B
:1022600041694905EED527E10621002E01EAD9177B
:1022700007F1F00101611CD0416909073DD44169B2
:10228000B8F1000F01F4806150D0002940F01481B2
:10229000FFF758FE411B2068414503D941690907F2
:1022A00040F140824169090751D441694905EFD5A0
:1022B00002E1416909074AD44169490500F1FC80FE
:1022C0004169090743D44169490500F1F580416935
:1022D00009073CD44169490500F1EE8041690907CD
:1022E00035D441694905E4D5E6E008293FF45EAFFD
:1022F000216B11293FF45AAF5CE75FFA89F1016164
:10230000416989072BD56FE0002940F0D580FFF7A0
:1023100019FE20684169890740F1048241698907F3
:1023200000F1E28041694905F1D5C5E0002940F09E
:10233000C380FFF707FE20684169090740F1F28179
:102340004169090703D441694905F2D5B4E05FFA50
:1023500089F1002E01611CD04169890744D441698B
:10236000B8F1000F01F480612ED0002940F0A48064
:10237000FFF7E8FD411B2068414503D94169890702
:1023800040F1D081416989072ED441694905EFD5D3
:1023900092E04169890727D44169490500F18C80A1
:1023A0004169890720D44169490500F18580416967
:1023B000890719D4416949057ED44169890713D435
:1023C00041694905E5D577E0002975D1FFF7BAFDE8
:1023D00020684169890740F1A5814169890703D4D3
:1023E00041694905F2D567E00021002E019141695C
:1023F0000191816901910199016841F48071016045
:102400002FD04169C90739D1B8F1000F0CD0FFF7BF
:1024100099FD411B2068414502D94169C9070DD08A
:102420004169C907F3D029E0FFF78CFD20684169B5
:10243000C90703D04169C907F6D01FE00021202257
:10244000216384F83D2084F83E1084F83C10216C10
:1024500041F0200121640068C00541D54FF40070AF
:102460003DE04169C90709D14169C90704BF416914
:102470005FEAC17102D14169C907F2D047F0F101A9
:10248000002E01617FF4D1AE416989072CD44169E6
:10249000490511D44169890726D4416949050BD4FE
:1024A0004169890720D44169490505D441698907F3
:1024B0001AD441694905E7D5016841F4007101600A
:1024C0006FF48061416100202021206384F83D1079
:1024D00084F83E0084F83C00206C40F00400206446
:1024E000012002B0BDE8F087218D89B101291BD1FF
:1024F000026822F480620260002201924269019225
:1025000082690192019A026842F4007202601FE03F
:10251000002101914169019181690191019901684D
:1025200041F400710160F2E00268022906D122F450
:1025300080620260026842F4006201E042F480625C
:102540000260002201924269019280690190019823
:102550004FF0000A4FF020098FB2032F0ED8012F41
:102560002FD1204641462A4604F034F80028B7D13E
:1025700020680069616A0870BDE000BF20464146DE
:102580002A4604F027F80028AAD120680069616A69
:102590000870616A20684A1C6262218D01392185B8
:1025A000638D013B638543695B0740F1AD8089B270
:1025B000032902BF016821F4806101600069107085
:1025C00099E02068A6B14169490728D4B8F1000F05
:1025D0001CD000BFFFF7B6FC411B2068414502D963
:1025E0004169490721D541694907F3D517E000BF83
:1025F0004169490713D44169490710D44169490722
:102600000DD441694907F3D509E000BFFFF79AFCF3
:1026100020684169490708D541694907F6D5002175
:10262000022F11D1002953D05AE7C4F830A084F802
:102630003D9084F83EA084F83CA0216C41F020013C
:1026400021640121022FEDD000297FF449AF0168F8
:10265000002E21F4806101600069616A0870616A7E
:10266000206801F101016162218DA1F10101218543
:10267000618DA1F1010161851DD04169490727D410
:10268000B8F1000F0DD000BFFFF75CFC411B2068C4
:10269000414502D94169490744D541694907F3D504
:1026A00016E0FFF74FFC2068416949073AD54169B8
:1026B0004907F6D50CE04169490709D44169490742
:1026C0005CBF41695FEA417102D441694907F2D5B3
:1026D000016841F4007101600069616A0870616A13
:1026E00020684A1C6262228D013A2285628D013A7D
:1026F000628500694870606A01306062208D411E09
:102700002185608D0138608508047FF425AF202085
:1027100084F83D00002084F83C0084F83E0002B0BC
:10272000BDE8F08700202021206384F83D1084F864
:102730003E0084F83C00206C40F02000CFE6000012
:102740002DE9F04381B01F46164689460446FFF73F
:10275000F9FB054694F83D00202822D1206800BFEF
:102760008169890719D5FFF7EDFB411B20681A29FC
:10277000F6D381698907F3D500202021206384F8EE
:102780003D1084F83E0084F83C00206C40F02000AE
:102790002064022001B0BDE8F08394F83C100129C8
:1027A00003D1022001B0BDE8F08301210022DDF851
:1027B000208084F83C10CFF6FF720168C90702BF81
:1027C000016841F001010160016821F400610160CC
:1027D000212184F83D10102184F83E10002121644D
:1027E0006785618DE26266622185E16A11F5803F4D
:1027F00018BF012940F09C80016841F4807101609C
:1028000018F101061FD04169C90729D1B8F1000F9D
:102810000ED000BFFFF796FB411B2068414503D94E
:102820004169C90700F08C804169C907F2D017E0FF
:10283000FFF788FB20684169C90700F08180416982
:10284000C907F5D00CE04169C90709D14169C90739
:1028500004BF41695FEAC17102D14169C907F2D081
:102860002169B1F5804F25D1FE2101EA0901002E31
:10287000016100F09D804169890700F1C9804169CB
:10288000B8F1000F01F480616DD0002940F0A880FC
:10289000FFF758FB411B2068414503D9416989076F
:1028A00040F105814169890700F1B280416949051C
:1028B000EED595E00621002E01EAD91101F1F001D3
:1028C00001611CD0416909076BD44169B8F1000F5F
:1028D00001F4806156D0002940F08280FFF732FB7E
:1028E000411B2068414503D94169090740F1DF8058
:1028F0004169090755D441694905EFD570E041693F
:1029000009074ED4416949056AD44169090748D489
:102910004169490564D44169090742D441694905BF
:102920005ED4416909073CD441694905E7D557E0C0
:1029300008293FF461AF216B12293FF45DAF5FE7D7
:1029400000212022216384F83D2084F83E1084F881
:102950003C10216C41F0200121640068C00553D572
:102960004FF400704FE0D9BBFFF7ECFA20684169E3
:10297000890740F19C804169890749D4416949052B
:10298000F2D52DE061BBFFF7DDFA20684169090748
:1029900040F18D804169090703D441694905F2D5A9
:1029A0001EE0FF2101EA0901002E01617FF463AFFF
:1029B000416989072CD44169490511D441698907C6
:1029C00026D4416949050BD44169890720D441695E
:1029D000490505D4416989071AD441694905E7D5F4
:1029E000016841F4007101606FF480614161002071
:1029F0002021206384F83D1084F83E0084F83C00D8
:102A0000206C40F004002064012001B0BDE8F08398
:102A1000002100914169009180690090009800BFF9
:102A2000208DA0B3204641462A4603F01DFE10BB70
:102A3000606A2168024612F8013B0B616262628D96
:102A4000013A6285228D571E27853F044B6918BFC6
:102A500013F0040308D0437802300B616062901ECB
:102A60002085608D01386085204641462A4603F066
:102A700043FD0028D4D0206C0428C5D1206801680B
:102A800041F400710160012001B0BDE8F0832068CD
:102A9000016841F400710160202084F83D000020AD
:102AA00084F83C0084F83E0001B0BDE8F0830020CB
:102AB0002021206384F83D1084F83E0084F83C0017
:102AC000206C40F020009EE7B0B586B0002405944D
:102AD000CDE90344CDE90144016845F60000C4F2A4
:102AE0000000814201D006B0B0BD43F6300500942D
:102AF00000F5D630C4F20205296841F002012960D0
:102B0000296801F002010091009904210591032137
:102B1000CDE90341122102914FF44061019101A9D5
:102B2000FFF720F90094286940F4800028612869A3
:102B300000F480000090009806B0B0BD40F2700034
:102B400047F28421C2F20000C2F2010100780A6853
:102B5000104408607047000080B543F60040C4F29E
:102B60000200016841F400710160016841F4806174
:102B70000160016841F480710160032000F084F875
:102B8000012000F005F800F025F8002080BD0000CD
:102B900070B540F2700604464FF47A71C2F2000636
:102BA0003078B1FBF0F040F6B801C2F200010968DC
:102BB000B1FBF0F000F0B2FF01250F2C08D838B9B6
:102BC0004FF0FF3021460022002500F02FF87460FE
:102BD000284670BD82B043F6400100200190C4F247
:102BE00002014A6842F480424A604A6802F4804224
:102BF0000192019A0090086840F0805008600868CF
:102C000000F080500090009802B070470028B8BFD4
:102C1000704700F01F010122400902FA01F14EF253
:102C20000012CEF2000242F82010704710B500F0FA
:102C30000F034EF60C5E00F1604CB0F1FF3FA3F1C4
:102C40000403CEF2000E734403F10C04C8BF0CF56C
:102C50006444DEF800004FF0FF3CC0F30220C31EC6
:102C600080F0070038BF0023042828BF04200CFA96
:102C700000F021EA00000CFA03F1984022EA010179
:102C800008430001207010BD4EF60C514FF6FF03B3
:102C9000CEF200010A681A4060F30A2242F0806016
:102CA00040F0FD7008607047F0B581B004460068E0
:102CB00010F0050F2DD0682743F670060020C4F2EF
:102CC0004727C4F202063860FFF73CF9054600BF0B
:102CD00056F8700C000105D5FFF734F9401B0228A7
:102CE000F6D93FE0D4E90101090741EA801070619B
:102CF00001203860FFF726F9054600BF56F8700C32
:102D0000000105D4FFF71EF9401B0228F6D929E07F
:102D1000206880074FF0000066D543F670060090EB
:102D200047F20007C4F20206C4F2000756F8300C5E
:102D300040F0805046F8300C56F8300C00F08050CF
:102D400000900098386840F480703860FFF7FAF817
:102D5000054600BF3868C00507D4FFF7F3F8401BED
:102D60000228F7D9032001B0F0BD306810F440709C
:102D700022D0E16801F4407188421DD0306840F6ED
:102D800040610122C4F247210A60002220F4407011
:102D90000A6030603068C0070ED0FFF7D3F80546F0
:102DA00041F288373068800706D4FFF7CBF8411B23
:102DB0000320B942F6D917E0E06856F8682C4FF6C0
:102DC000FF41C0F6FF7100F4407322F4F812014095
:102DD0006FF31F30B3F5407F08BF0A4346F8682CF5
:102DE000316808433060002001B0F0BD2DE9F041AA
:102DF000002800F0A88043F6080804460D46C4F2F7
:102E00000208D8F8F80300F00700884208D288F8D2
:102E1000F853D8F8F80300F00700A84240F0938078
:102E20002068810717D5410742BFD8F8001041F448
:102E3000E051C8F80010010742BFD8F8001041F473
:102E40006041C8F80010D8F80010A26821F0F00125
:102E50001143C8F80010C00736D06068811E0229EF
:102E600007D258F8081C89015CBF0120BDE8F08139
:102E70000DE0012807D158F8081C89035CBF012028
:102E8000BDE8F08103E058F8081C89075BD5D8F845
:102E9000001021F003010843C8F80000FFF752F8C2
:102EA000064641F2883707E0FFF74CF8801BB8422E
:102EB00084BF0320BDE8F081D8F80000616800F00D
:102EC0000C00B0EB810FEFD1D8F8F80300F0070049
:102ED000A84207D988F8F853D8F8F80300F007009B
:102EE000A84230D12068410707D5D8F80010E26821
:102EF00021F4E0511143C8F80010000708D5D8F8B4
:102F00000000216920F4604040EAC100C8F80000D8
:102F100000F044F8D8F8001049F26C12C0F6040230
:102F2000C1F30311515CC84040F6B801C2F2000180
:102F3000086040F27400C2F200000068FFF728FE4B
:102F40000020BDE8F0810120BDE8F08140F6B80026
:102F500043F6080149F27C12C2F20000C4F20201F9
:102F6000C0F6040200680968C1F38221515CC840C0
:102F70007047000040F6B80043F6080149F27C12A1
:102F8000C2F20000C4F20201C0F60402006809683F
:102F9000C1F34231515CC8407047000010B543F6A0
:102FA0000404C4F20204606800F00C0008280AD08F
:102FB000042819BF42F20040C0F2F40047F6400076
:102FC000C0F27D1010BD226820680023400202F08C
:102FD0003F0247F64000C0F27D105CBF42F2004065
:102FE000C0F2F4002168C1F38811A0FB0101FDF7D4
:102FF000CEF921680222C1F3014102EB4101B0FB8D
:10300000F1F010BD2DE9F04182B0002800F05181AF
:103010000446007843F60006C4F20206C00744D016
:10302000B06800F00C00042805D1306880033CD55E
:103030006068D0BB3DE1B06800F00C00082802D108
:1030400070684002F1D46768B7F5803F06D03068F9
:10305000B7F5A02F13D140F480203060306840F4E1
:1030600080303060FEF76EFF054600BF3068800399
:103070001BD4FEF767FF401B6428F7D9B6E020F4A5
:1030800080303060306820F480203060FEF75AFFD6
:103090000546002FEAD13068800306D5FEF752FFBF
:1030A000411B03206429F6D949E1207880072FD5F8
:1030B000B06810F00C0F07D0B06800F00C000828C2
:1030C0000AD17068400207D43068800719D5E068DB
:1030D000012840F0EE8014E0E068002800F08A80CB
:1030E00000200121C4F247200160FEF72BFF0546B6
:1030F0003068800705D4FEF725FF401B0228F7D96A
:1031000074E03068216920F0F80040EAC1003060C6
:103110002078000723D561690020C4F2472071B1EF
:103120000121C0F8801EFEF70DFF0546706F800775
:1031300015D4FEF707FF401B0228F7D956E00021FF
:10314000C0F8801EFEF7FEFE054600BF706F8007C8
:1031500005D5FEF7F7FE401B0228F7D946E0207898
:10316000400779D5306C4FF00008C0000CD4CDF882
:1031700004804FF00108306C40F080503064306CB7
:1031800000F080500190019847F20007C4F2000758
:103190003868C0050FD4386840F480703860FEF796
:1031A000D1FE05463868C00505D4FEF7CBFE401BAE
:1031B0000228F7D91AE0A768012F05D0306F052F34
:1031C0002BD140F004003067306F40F001003067D1
:1031D000FEF7B8FE054641F2883700BF306F800722
:1031E00033D4FEF7AFFE401BB842F7D9032002B03C
:1031F000BDE8F08100200021C4F247200160FEF705
:10320000A1FE0546306880077FF582AFFEF79AFE83
:10321000411B03200229F5D991E020F0010030671D
:10322000306F20F004003067FEF78CFE0546002F5B
:10323000D1D141F28837306F800706D5FEF782FE84
:10324000411B0320B942F6D979E0B8F1000F1EBF47
:10325000306C20F080503064A769002F6ED0B068C9
:1032600000F00C00082828D1012F22D07068E169F5
:1032700000F480028A421CD1216A00F03F028A4297
:1032800017D147F6C071626A0140B1EB821F10D1BD
:10329000A16A4FF6FF72C903914300F44032A1F5D1
:1032A00080318A4205D1E16A00F07060B0EB016FB5
:1032B00044D0012002B0BDE8F08140F200080020B7
:1032C000C4F24728C8F86000FEF73CFE0546022F0E
:1032D0000AD100BF3068800110D5FEF733FE411BD4
:1032E00003200229F6D92AE03068800126D5FEF7AE
:1032F00029FE411B03200229F6D920E004F11C0716
:103300008FCF0843D90340EA82104FF6FF729143F2
:1033100040EA0760A1F58031084370600120C8F8D9
:103320006000FEF70FFE04463068800106D4FEF709
:1033300009FE011B03200229F6D900E0002002B09B
:10334000BDE8F08110B581B040F6B803C2F20003C9
:10335000D3F800C044F6D353C1F26203ACFB033C84
:103360004FEADC2C4FF47A730CFB03FE4FF0020C97
:10337000CDF800E0037F012B00F08580012380F869
:103380001DC00377CA230468636253236362A36882
:103390005B054FD4A36823F48063A360E36863F400
:1033A000906323F48063E360CDF800E0009B013B71
:1033B0000093009B002B5ED0E3685B071AD4009B50
:1033C000013B0093009B002B55D0E3685B0711D4B1
:1033D000009B013B0093009B002B4CD0E3685B07F4
:1033E00008D4009B013B0093009B002B43D0E36873
:1033F0005B07DBD5A3684FF0000C23F00703A36045
:10340000A3681A43A260616143F60041C4F201015E
:103410000A6842F480020A608A6842F480028A6084
:10342000A16841F48041A160A16841F48061A1607C
:10343000012123E0009B013B0093009BDBB1E3688B
:103440005B07A7D5009B013B0093009B9BB1E36802
:103450005B079FD5009B013B0093009B5BB1E3683A
:103460005B0797D5009B013B0093009B1BB1E36872
:103470005B07DFD48EE703214FF0030CFF2262626B
:10348000002202774177604601B010BD704700000E
:1034900010B5044643F614404FF48001C4F2010015
:1034A00001602068C168490508D5C16861F4906170
:1034B00021F48061C1602046FFF7E8FF01206077BA
:1034C00010BD000010B50068002A406800F03F03FE
:1034D0004FEA104C8B70C0F3042E81F801E081F8A4
:1034E00003C0C0F342340C7001D0002010BD1B0992
:1034F00000F00F04020A43EA830302F00F0204EB18
:1035000043038B704FEA1E1343EA830302EB43022B
:103510004A70C0F303500CF00F0200EB800002EB86
:103520004000C870002010BD10B50068002A836AF2
:103530004B6003696FF3DF338B600068C0F3805327
:10354000CB7000F07F038B70C0F3062E81F801E092
:10355000C0F3054C81F800C001D0002010BD1B094C
:10356000020A040C00F00F0003EB830300EB43009E
:10357000887002F00F004FEA1E1202EB820200EB8D
:1035800042004FEA1C12487004F00F0042EA820227
:1035900000EB42000870002010BD0000F0B581B0C3
:1035A00000286AD00446407F20B9002020772046BA
:1035B00000F078F8022060772068C168C9066AD4F4
:1035C000CA21416253214162C16849061CD4C168C5
:1035D00041F08001C160FEF7B5FC05462068C16876
:1035E000490611D400260427FEF7ACFC401BB0F5B9
:1035F0007A7F84BF677701262068012EC16802D0D8
:1036000011F04001F0D09EBB4FF6BF728168CFF63B
:103610008F72114081606168D4E90423114382688C
:10362000194311438160E1680161A168026942EABE
:1036300001410161C16821F08001C1608168890692
:103640001FD447F65F71C0F20101C160FEF77AFC3A
:10365000054600BF2068C168890612D4FEF772FCD7
:10366000401BB0F57A7FF5D90420012660772068E9
:10367000FF214162F0B201B0F0BD0126F0B201B00D
:10368000F0BD016C21F480210164A169026C114339
:103690000164FF214162012000266077F0B201B091
:1036A000F0BD000080B584B00021CDE90211CDE964
:1036B000001142F600010068C4F20001884201D006
:1036C00004B080BD4FF480700390022000906846E3
:1036D000FFF7EAFA002818BFFEF76EF840F63C60E4
:1036E00001210022C4F24720016003200021FFF7DE
:1036F0009DFA0320FFF78AFA04B080BD2DE9F04758
:103700000446007F0227012800F0B680002A4FF00F
:1037100001006777207707D04878CA7891F802903F
:10372000000240EA02484FE04878C20642BF00F07B
:10373000EF000A304870CA780A2A10D34CF6CD47F9
:103740000A3AD3B2CCF6CC47A3FB0737FF081023C5
:1037500003EB071307EB8707A2EB470200E0002308
:103760001A43C3B2D2B20A2B4FEA024210D34CF62C
:10377000CD470A38C3B2CCF6CC47A3FB0737FF08C6
:10378000102303EB071307EB8707A0EB470000E0CC
:1037900000231843C0B242EA002888780A2810D3D0
:1037A0004CF6CD430A38C2B2CCF6CC43A2FB03237D
:1037B000DB08102202EB031203EB8303A0EB4300B0
:1037C00000E0002242EA0009206891F800A0CA2126
:1037D000416253214162C16849061DD4C16841F06C
:1037E0008001C160FEF7AEFB05462068C16849064E
:1037F00012D40027042600BFFEF7A4FB401BB0F53F
:103800007A7F84BF667701272068012FC16802D0C4
:1038100011F04001F0D05FBB5FFA89F14FEA4A3204
:1038200041EA080121F0C00111434160C16821F063
:103830008001C1608168890617D447F65F71C0F2C4
:103840000101C160FEF77EFB054600BF2068C1682C
:1038500089060AD4FEF776FB401BB0F57A7FF5D9CE
:10386000042001276077206802E0012100276177AA
:10387000FF21416200202077F8B2BDE8F087000008
:103880002DE9F04381B00446007F0227012800F0B3
:10389000CF80012067778946002A207720688168D9
:1038A00001F0400114D0002907BF002189F803105E
:1038B00099F80310890599F8013099F8002099F8D2
:1038C00002701B0243EA02423A4442EA010854E011
:1038D000002904BF002189F8031099F800100A2973
:1038E00010D34CF6CD430A39CAB2CCF6CC43A2FB76
:1038F0000323DB08102202EB031203EB8303A1EB8B
:10390000430100E00022114399F80120C9B20904E3
:103910000A2A10D34CF6CD470A3AD3B2CCF6CC479C
:10392000A3FB0737FF08102303EB071307EB8707F9
:10393000A2EB470200E000231A43D2B241EA02217F
:1039400099F802200A2A10D34CF6CD470A3AD3B28E
:10395000CCF6CC47A3FB0737FF08102303EB071374
:1039600007EB8707A2EB470200E000231A43D2B21D
:10397000114399F8032041EA8258CA214162532138
:103980004162C16849061DD4C16841F08001C1602F
:10399000FEF7D8FA06462068C168490612D4002707
:1039A000042500BFFEF7CEFA801BB0F57A7F84BFF6
:1039B000657701272068012FC16802D011F040010E
:1039C000F0D08FBB47F67F71C0F27F0101EA08019A
:1039D0000160816821F480218160D9E90312836844
:1039E000114319438160C16821F08001C160816881
:1039F000890616D447F65F71C0F20101C160FEF777
:103A0000A1FA05462068C16889060AD4FEF79AFA29
:103A1000401BB0F57A7FF5D9042001276077206834
:103A200002E0012100276177FF2141620020207719
:103A3000F8B201B0BDE8F083002804BF0120704750
:103A400070B5044690F8490015460E4628B9002086
:103A500084F84800204600F01DF8206804F10801B1
:103A6000FDF7D4FE2068A2683146FDF703FFD4E9D4
:103A70000102236B2946FDF7A3FE2068A16850F8D8
:103A8000212042F0010240F82120012084F8490061
:103A9000002070BD2DE9F04387B041F2C8600026D8
:103AA0000696CDE90466CDE90266C2F2000001780F
:103AB00089BB012140F600444FF00C084FF0030988
:103AC000022702AD017043F638000196C4F20204E9
:103AD000C4F20200016841F001010160294600685A
:103AE00000F0010001900198CDF81880CDE904693B
:103AF00003974FF68070029004F58060FEF732F96C
:103B00004EF2B370CDE90598CDE9037629460290CF
:103B10002046FEF727F907B0BDE8F083411E0020DC
:103B2000B0EB116F1CBF012070474EF21002F02362
:103B3000CEF2000251604EF62351CEF200010B701E
:103B400007219060116070477047000070470000C7
:103B500090F83C300222012B5DD010B580F83D205A
:103B6000012280F83C200268D2F804E0D2F808C0B4
:103B70000C682EF070032343536041F2FF73C4F2CC
:103B800000039A42BDE810400FDC40F2FF73C4F21C
:103B900000039A421BDCB2F1804F31D040F2004367
:103BA000C4F200039A422BD02FE040F2FF33C4F25C
:103BB00001039A4218DC41F60003C4F200039A4262
:103BC0001ED00023C4F201039A4219D01DE040F632
:103BD0000003C4F200039A4212D040F60043C4F23C
:103BE00000039A420CD010E044F20003C4F2010337
:103BF0009A4205D040F20043C4F201039A4204D134
:103C000049682CF08003194391600022012180F85B
:103C10003C2080F83D10104670470000002804BF8B
:103C20000120704710B5044690F83D0028B90020E7
:103C300084F83C00204600F01FF80220211D84F883
:103C40003D00206803F036FB012084F8460084F82C
:103C50003E0084F83F0084F8400084F8410084F876
:103C6000420084F8430084F8440084F8450084F856
:103C70003D00002010BD000070B582B040F6FF315D
:103C800004460068C4F20001884250DCB0F1804F65
:103C900070D040F20041C4F20001884200F08480FC
:103CA00040F60001C4F20001884240F0A68043F6CD
:103CB0004001002042F6142546F210064FF4005C45
:103CC0004FF4006E4FF480630190C4F20201C2F21F
:103CD0000005C4F202060A6842F004020A604FF0CE
:103CE0008062096801F00401019101994FF480316B
:103CF000C5E908104021C5E90062C5E90210C5E91F
:103D0000043EC5E906C02846FDF714FF002818BF89
:103D1000FDF752FD1E20032100226562AC63FEF711
:103D200085FF1E2002B0BDE87040FEF76FBF40F671
:103D30000041C4F20001884250D041F60001C4F2B3
:103D4000000188425BD044F60001C4F201018842C0
:103D500053D10020019043F64000C4F202004168B4
:103D600041F480214160406800F480200190019876
:103D700002B070BD00200022019043F64000C4F262
:103D80000200016841F0010101600B21006800F0B0
:103D90000100019001981C20FEF748FF1C2002B092
:103DA000BDE87040FEF732BF00200022019043F6CC
:103DB0004000C4F20200016841F0020101600F21DD
:103DC000006800F00200019001981D20FEF72EFF10
:103DD0001D2002B0BDE87040FEF718BF0020019022
:103DE00043F64000C4F20200016841F0080101609E
:103DF000006800F008000190019802B070BD00203A
:103E00000022019043F64000C4F20200016841F034
:103E1000400101600721006800F040000190019816
:103E20002B20FEF703FF2B2002B0BDE87040FEF709
:103E3000EDBE000090F83D1001291CBF0120704725
:103E4000022180F83D100068C16841F00101C160A5
:103E500041F2FF71C4F2000188420FDC40F2FF71B1
:103E6000C4F2000188421BDCB0F1804F31D040F237
:103E70000041C4F2000188422BD031E040F2FF3112
:103E8000C4F20101884218DC41F60001C4F20001CD
:103E900088421ED00021C4F20101884219D01FE0DF
:103EA00040F60001C4F20001884212D040F6004101
:103EB000C4F2000188420CD012E044F20001C4F2C6
:103EC0000101884205D040F20041C4F2010188425C
:103ED00006D1816801F00701062904BF0020704760
:103EE000016841F00101016000207047016841F262
:103EF0001113CA6822F00102CA600A6A1A4204D188
:103F00000A6A40F244431A4204D0012180F83D106D
:103F1000002070470A6822F001020A60012180F83F
:103F20003D1000207047000090F83C300222012B29
:103F300000F0C38080B580F83D20012280F83C204D
:103F40004FF67772D0F800C0DCF8083023EA02029E
:103F5000CCF808200B684F2B28DC1F2B42DD202BD0
:103F600043D0302B41D0402B40F0A980D1F804E061
:103F7000C968DCF82030DCF8202022F00102CCF8FF
:103F80002020DCF8182022F0F00242EA0111CCF8DF
:103F9000181023F00A0141EA0E01CCF82010DCF8D9
:103FA000081041F0470121F030017BE06F2B24DD48
:103FB000B3F5005F45D0B3F5805F75D0702B7ED12F
:103FC000D1E90123C9681A4342EA0121DCF808203B
:103FD00022F47F421143CCF80810DCF8081041F0BD
:103FE00077015FE00BB1102B69D1DCF8081021F0EC
:103FF0007001194341F0070154E0502B33D0602B7E
:104000005DD1D1F804E0C968DCF82030DCF820206C
:1040100022F01002CCF82020DCF8182022F47042A4
:1040200042EA0131CCF8181023F0A00141EA0E1148
:10403000CCF82010DCF8081041F0670121F01001E5
:1040400030E0D1E90123C9681A4342EA0121DCF8D2
:10405000082022F47F421143CCF80810DCF8081045
:1040600041F480411EE0D1F804E0C968DCF820305A
:10407000DCF8202022F00102CCF82020DCF8182007
:1040800022F0F00242EA0111CCF8181023F00A01E4
:1040900041EA0E01CCF82010DCF8081041F057017D
:1040A00021F02001CCF808100022002180F83C10FB
:1040B000012180F83D10BDE8804010467047012284
:1040C000F3E700007047000070470000B0B50446F9
:1040D0000068C168026902EA0105A90720D46807DF
:1040E00038D4280752D4E8066BD4E80740F087801C
:1040F000280600F18E80680606D520686FF0400122
:104100000161204601F014F8A80658BFB0BD206830
:104110006FF0200101612046BDE8B040FFF716BDF9
:104120006FF002010161012121778069800707D0CA
:104130002046FFF7C9FF002020776807D1D509E0A6
:10414000204600F01BF9204600F074FA002020778A
:104150006807C6D520686FF004010161022121774C
:10416000806910F4407F07D02046FFF7ADFF0020A4
:1041700020772807B7D509E0204600F0FFF8204651
:1041800000F058FA002020772807ACD520686FF09F
:104190000801016104212177C069800707D020460A
:1041A000FFF792FF00202077E8069ED509E0204621
:1041B00000F0E4F8204600F03DFA00202077E80601
:1041C00093D520686FF01001016108212177C06943
:1041D00010F4407F08D02046FFF776FF00202077BC
:1041E000E8073FF485AF0AE0204600F0C7F8204614
:1041F00000F020FA00202077E8073FF479AF20682C
:104200006FF001010161204600F08AFC28067FF56D
:1042100072AF20686FF0800101612046FFF794FCC7
:1042200068067FF571AF68E780B586B0002105911B
:10423000CDE90311CDE9011143F6FF710068C4F225
:104240000101884229DC40F60001C4F200018842E5
:1042500051D040F60041C4F20001884240F08B800A
:1042600043F6300100200090C4F202010A6842F0D7
:1042700001020A60096801F0010100910099022120
:104280000591CDE903000020CDE90111C4F202003F
:1042900001A9FDF767FD06B080BD44F20001C4F23C
:1042A0000101884248D044F60001C4F2010188426D
:1042B00061D143F6300100200090C4F202010A6887
:1042C00042F002020A60096801F0020100910099BF
:1042D00003210591CDE90300022002904FF4007004
:1042E00001900020C4F2020000F5806001A9FDF7F2
:1042F00039FD06B080BD43F6300100200090C4F2C5
:1043000002010A6842F008020A60096801F0080127
:10431000009100990221CDE90401CDE902104FF48A
:10432000805001900020C4F2020000F5406001A915
:10433000FDF718FD06B080BD43F630010020009067
:10434000C4F202010A6842F010020A60096801F032
:1043500010010091009903210591CDE9030002208D
:1043600001A90290402001900020C4F2020000F553
:104370008050FDF7F7FC06B080BD000070470000DC
:1043800090F83C30012B02BF0223184670474FEAD9
:10439000B2020123032A80F83C3000F2FE802DE9AE
:1043A000F041DFE802F002407FBF0368D3F820E06D
:1043B0001A6A22F001022EF002051A621A46D3F898
:1043C00004C052F8187F8C680E6844EA050E27F086
:1043D000730443F4806544EA060840F20046C4F2E0
:1043E0000106B5420DD1CD68D1E905672CF44074C2
:1043F000264346EA070C2EF00C0725F0040646EA91
:10440000070EC3F804C0C3F818804F685F63C3F891
:1044100020E09F6947F008079F619F6927F0040724
:104420009F610969B3E003681F6A1A6A22F01002EB
:1044300027F020071A621A46D3F804C052F8184F22
:104440008E680D6847EA061E40F2004624F4E644F2
:1044500044EA052843F48065C4F20106B54210D150
:10446000CD68D1E905672CF4406444EA86066FF014
:10447000400446EA870C04EA05142EF0C00744EA1B
:10448000070EC3F804C0C3F818804F689F63C3F8D1
:1044900020E09F6947F400679F619F6927F4806768
:1044A0009F6172E003681F6A1A6A22F4807227F41F
:1044B00000771A621A46D3F804C052F81C4F8E686F
:1044C0000D6847EA062E40F2004624F0730444EAE1
:1044D000050843F48065C4F20106B54210D1CD68E9
:1044E000D1E905672CF4405444EA06162C0240F248
:1044F000FF4546EA071CAC432EF4406744EA070E2A
:10450000C3F804C0C3F81C804F68DF63C3F820E021
:10451000DF6947F00807DF61DF6927F00407DF6123
:10452000096934E00368D3F820C01A6A22F4805283
:104530002CF400541A621A46D3F8048052F81C6F07
:104540008F680D6844EA073C26F4E64743F480642C
:1045500047EA052E40F20045C4F20105AC4202BF15
:104560004C6928F4804545EA8418C3F80480C3F8F0
:104570001CE04F681F64C3F820C0DF6947F4006780
:10458000DF61DF6927F48067DF6109690902136869
:10459000194300231160BDE8F041002180F83C1070
:1045A00018467047002804BF0120704710B5044624
:1045B00090F83D0028B9002084F83C00204600F027
:1045C0001FF80220211D84F83D00206802F072FED1
:1045D000012084F8460084F83E0084F83F0084F807
:1045E000400084F8410084F8420084F8430084F8D5
:1045F000440084F8450084F83D00002010BD000010
:1046000044F200010068C4F20101884218BF7047FB
:1046100081B00020009043F64400C4F2020001681B
:1046200041F480310160006800F48030009000980F
:1046300001B0704742F668400021C2F2000000F06D
:10464000F7B900007047000041B1082909D00429DA
:1046500014BF00F1410200F13F0204E000F13E020C
:1046600001E000F140021278012A1CBF01207047CE
:10467000022241B1082909D0042914BF80F8412041
:1046800080F83F2004E080F83E2001E080F84020E0
:10469000006801F01F01012202FA01F1026A8A4357
:1046A0000262026A1143016241F2FF71C4F2000129
:1046B00088420FDC40F2FF71C4F2000188421BDC2B
:1046C000B0F1804F51D040F20041C4F20001884265
:1046D0004BD051E040F2FF32C4F20102904218DCAC
:1046E00041F60003C4F2000398423ED00023C4F216
:1046F0000103984219D03FE040F60001C4F20001E6
:10470000884232D040F60041C4F2000188422CD0E9
:1047100032E044F20003C4F20103984225D040F293
:104720000043C4F20103984226D1436C884243F40B
:1047300000434364BEDD90420BDC41F60001C4F24D
:104740000001884211D00021C4F2010188420CD03E
:1047500012E044F20001C4F20101884205D040F2A7
:104760000041C4F20101884206D1816801F00701CD
:10477000062904BF00207047016841F00101016073
:1047800000207047B0B50C46054641B1082C09D051
:10479000042C14BF05F1410005F13F0004E005F1D0
:1047A0003E0001E005F140000078022804BF02202D
:1047B000B0BDFCB1082C24D0042C14BF05F141007D
:1047C00005F13F0001780120D2B1012918BFB0BD29
:1047D000002B00F0A5800220D4B1082C1FD0042C9F
:1047E00014BF85F8410085F83F004FEAB400032864
:1047F0001CD995E005F13E0001780120002AE4D1A2
:10480000B0BD05F1400001780120002ADDD1F7E7B5
:1048100085F83E004FEAB400032807D980E085F808
:1048200040004FEAB400032800F27A80DFE800F08D
:1048300002213F5D47F20541686AC0F60001C1638D
:1048400047F26D41686AC0F60001016447F2A54174
:10485000686AC0F60001C1642968686A01F1340C15
:1048600011466246FDF71AFA002859D14FF400713B
:104870005AE047F20541A86AC0F60001C16347F259
:104880006D41A86AC0F60001016447F2A541A86A1B
:10489000C0F60001C1642968A86A01F1380C11460C
:1048A0006246FDF7FBF9D8BB4FF480613CE047F26C
:1048B0000541E86AC0F60001C16347F26D41E86A4C
:1048C000C0F60001016447F2A541E86AC0F60001A4
:1048D000C1642968E86A01F13C0C11466246FDF7A3
:1048E000DDF9E8B94FF400611EE047F20541286B9D
:1048F000C0F60001C16347F26D41286BC0F60001AC
:10490000016447F2A541286BC0F60001C164296823
:10491000286B01F1400C11466246FDF7BFF908B162
:104920000120B0BD4FF480512868C26811430122B4
:10493000C16004F01F0102FA01F1026A8A430262B7
:10494000026A1143016241F2FF71C4F20001884220
:104950000FDC40F2FF71C4F2000188421BDCB0F1B1
:10496000804F51D040F20041C4F2000188424BD048
:1049700057E040F2FF32C4F20102904218DC41F6E7
:104980000003C4F2000398423ED00023C4F20103A6
:10499000984219D045E040F60001C4F20001884277
:1049A00032D040F60041C4F2000188422CD038E0F9
:1049B00044F20003C4F20103984225D040F20043C0
:1049C000C4F2010398422CD1436C884243F4004363
:1049D0004364BEDD90420BDC41F60001C4F20001ED
:1049E000884211D00021C4F2010188420CD018E0A5
:1049F00044F20001C4F20101884205D040F20041B6
:104A0000C4F2010188420CD1816801F00701062936
:104A100004BF0020B0BD016841F001010160002029
:104A2000B0BD016841F0010101600020B0BD00008F
:104A3000B0B504464FEAB100032884BF0120B0BDE1
:104A40000D46DFE800F0020910172068C16821F464
:104A50000071C160606A13E02068C16821F4806160
:104A6000C160A06A0CE02068C16821F40061C160E7
:104A7000E06A05E02068C16821F48051C160206BC4
:104A8000FCF764FF05F01F00012181402068026AE5
:104A900022EA010140F200420162C4F20102016A0D
:104AA000016240F48061914209D1016A41F2111220
:104AB000114204D1016A40F24442114211D0016A0C
:104AC00041F21112114215D1016A40F244421142E1
:104AD00010D1016821F0010101600120082D0CD1E5
:104AE00015E0416C21F400414164016A41F2111268
:104AF0001142E9D00120082D09D0042D0BD0002D42
:104B000014BF84F8410084F83E000020B0BD84F852
:104B100040000020B0BD84F83F000020B0BD000080
:104B20002DE9F04F81B02DED068B84B040F20041AD
:104B30000068C4F2000188423AD0B0F1804F40F0E2
:104B4000D28241F2CC44C2F20004606DD0E9001080
:104B500042420FF2C450FBF791FC606D006800EB1D
:104B60008000800000EE100AB8EEC00A30F004FFAA
:104B7000606D406800EB80004042800000EE100A4B
:104B8000B8EEC00A30F084FF2068013004282060AD
:104B900040F0A98242F6D830C2F20000FFF7A6F931
:104BA0000020206004B0BDEC068B01B0BDE8F08FA2
:104BB00040F22404C2F200046069012819D0B8BB95
:104BC000A06943F0C4FB9FEDA60B53EC102B43F000
:104BD000FBF99FEDA50B53EC102B43F05BFC43F06E
:104BE00087FB0146202002F0E5F9A06943F0AFFB06
:104BF00053E094ED030AB5EEC00AF1EE10FA19DBAA
:104C00009FED9B1AB4EEC10AF1EE10FA12DC10EE21
:104C1000100A43F035FF9FED980B53EC102B43F037
:104C200039FC9FED970B53EC102B43F011F918E072
:104C300000204CE09FED8E1AB4EEC10AF1EE10FA9E
:104C400027DD10EE100A43F01BFF9FED8F0B53EC96
:104C5000102B43F0FDF89FED8E0B53EC102B43F01F
:104C600019FC41EC100B51EC100B43F0BFF89FED19
:104C70008A1A00EE100AB4EEC10AF1EE10FA08DA50
:104C8000B5EEC00AB0EE401AF1EE10FAD8BF9FEDB3
:104C9000831A11EE100A43F0F3FE9FED711B41ECF5
:104CA000100B51EC100B53EC112B43F08DF99FEDD1
:104CB0007C1B41EC100B3FF0A7FE9FED7B1B51ECE2
:104CC000100B53EC112B43F0E5FB43F011FB42F6C4
:104CD000B041C2F200010968886341F2CC41C2F2DE
:104CE0000001486801300528486040F0FC81086DEB
:104CF000022866D0012800F0DB80002840F0EC801C
:104D0000002094ED070A4CF2A602C1E90A00C1E9AD
:104D10000C00C1E90E000864C1E90200C1E9040009
:104D2000C1E90600C1E908000020C0F6090200211F
:104D3000C4F2C8202061BDEEC00A002010EE106A47
:104D40003346FBF7BDFB0130FBF7CBFA054638B124
:104D50004CF2A60128463246C0F60901FBF79AFB41
:104D600094ED080A4CF2A60200200021C0F60902C8
:104D7000BDEEC00A10EE107A3B46FBF7A1FB0130F6
:104D8000FBF7AFFA064638B14CF2A60130463A4678
:104D9000C0F60901FBF77EFB42F6AC072946C2F2DA
:104DA0000007F86A22F0AAFD2846FBF7C9FA386B1B
:104DB000314622F0A3FD3046FBF7C2FA33F0EEFA9B
:104DC0008AE094ED070A4CF2A60200200021C0F60A
:104DD0000902BDEEC00A10EE106A3346FBF770FB05
:104DE0000130FBF77EFA054638B14CF2A6012846A1
:104DF0003246C0F60901FBF74DFB94ED080A4CF270
:104E0000A60200200021C0F60902BDEEC00A10EE85
:104E1000107A3B46FBF754FB0130FBF762FA06467B
:104E200038B14CF2A60130463A46C0F60901FBF70C
:104E300031FB42F6AC072946C2F20007D7F8080159
:104E400022F05CFD2846FBF77BFAD7F800013146DB
:104E500022F054FD3046FBF773FA3DE000BF00BF7F
:104E600000000000000059400000000000E06F401A
:104E70000000964300BF00BFDEDDDDDDDDDDCD3FA0
:104E80000000000000003E400000000000409FC005
:104E90001E1E1E1E1E1EAEBF0000C84200000000E7
:104EA0009A999999999901400000000000408F401B
:104EB0000020C1E90A00C1E90C00C1E90E00086444
:104EC000C1E90200C1E90400C1E90600C1E9080026
:104ED0000020C4F2C820206125884EF6602085425B
:104EE00084BF4FF4C875258094ED018A94ED029A31
:104EF00094ED03AA32F0B8F990ED000A94ED071A88
:104F00002A46BDEEC11ABDEEC00ABDEEC82ABDEEEE
:104F1000C93ABDEECA4A12EE100A13EE101A14EE88
:104F2000103A8DED000A8DED011A3EF049FC32F089
:104F30009BF90068206208F045FE406843F0A0FD40
:104F40009FED6F0B53EC10AB5246039342F080FF82
:104F50009FED6D0B05460E4653EC10BB5A4602936F
:104F600043F098FA02460B462846314643F092FA3F
:104F700002460B462846314643F08CFA02460B4661
:104F80002846314643F086FA02460B46284631460B
:104F900043F080FA9FED5E0B59EC107B3A464B468E
:104FA00042F056FF9FED540B55EC108B42462B46BA
:104FB00043F070FA42F01AFFE06104F10C00FCF7D4
:104FC000AFFBA11C204602F027F804F10800211DC8
:104FD000FCF706FAFCF77AFA02F0DAF8FCF7C8FBFD
:104FE00026884EF66020864284BF4FF4C87626801D
:104FF00094ED018A94ED029A94ED03AA32F034F90B
:1050000090ED000A94ED071A3246BDEEC11ABDEECE
:10501000C00ABDEEC82ABDEEC93ABDEECA4A12EEBC
:10502000100A13EE101A14EE103A8DED000A8DEDF1
:10503000011A3EF0C5FB32F017F90068206208F053
:10504000C1FD406843F01CFD039B524642F000FF47
:10505000029B5A4606468A4643F01CFA02460B4615
:105060003046514643F016FA02460B46304651464A
:1050700043F010FA02460B463046514643F00AFA16
:1050800002460B463046514643F004FA3A464B4638
:1050900042F0DEFE42462B4643F0FCF96268A26411
:1050A00042F0A4FEE06132F0DFF8014604F1340082
:1050B000FCF7E6FA221D07CA238800EE103AB8EE84
:1050C000400AC4E90A1284ED0C0A44F8240F08F0DF
:1050D00079FD01462046FCF7A1FA41F2CC410020BF
:1050E000C2F20001486004B0BDEC068B01B0BDE81F
:1050F000F08F00BF00BF00BF00000000000059405B
:10510000000000000000E0BF000000000000304090
:10511000000000000000E03F6C6F73735F78203A7E
:1051200025642C206C6F73735F79203A25640A0024
:1051300070470000704700007047000010B582B053
:10514000D0F800E00446DEF80010DEF80C20DEF8AF
:1051500014305FEA017C00F0C38002F4907003F029
:105160000103C01800F0FF80C8071FBF12F4807051
:10517000606C40F001006064480705D5002B1EBF3D
:10518000606C40F002006064880705D5002B1EBFEC
:10519000606C40F004006064BCF1000F07D502F0C1
:1051A0002000C0181EBF606C40F008006064606C96
:1051B000002800F0788202EA0100800604D520462B
:1051C00002F022FBD4F800E0DEF81400616C00F07D
:1051D000400001F00801401800F0A7815EE8030FCD
:1051E00003E000BF206850E8030F216820F49070AE
:1051F00041E80302E2B1206850E8030F216820F47F
:10520000907041E803029AB1206850E8030F2168CA
:1052100020F4907041E8030252B1206850E8030F77
:10522000216820F4907041E80302002ADAD100BF1F
:10523000206850E8050F216820F0010041E80502D0
:10524000DAB1206850E8050F216820F0010041E83C
:10525000050292B1206850E8050F216820F0010096
:1052600041E805024AB1206850E8050F216820F0A6
:10527000010041E80502002ADAD1206B012824D17F
:10528000206850E8030F216820F0100041E8030275
:10529000DAB1206850E8030F216820F0100041E8DF
:1052A000030292B1206850E8030F216820F010003B
:1052B00041E803024AB1206850E8030F216820F05A
:1052C000100041E80302002ADAD1202084F84200CD
:1052D0000020206320684169490640F120810AE0EE
:1052E00011408A0640D5204602B0BDE8104002F0C9
:1052F0008BBA00BF206850E8050F216820F04000FD
:1053000041E80502DAB1206850E8050F216820F075
:10531000400041E8050292B1206850E8050F21687D
:1053200020F0400041E805024AB1206850E8050F2E
:10533000216820F0400041E80502002ADAD1E06B44
:10534000002800F0EC8047F20151C0F60001016531
:10535000FCF7FCFA002800F0A681E06B016D02B0BA
:10536000BDE8104008471140226BC8061CD5012A31
:105370001AD100200190DEF800000190DEF8040050
:1053800001900198DEF81400400600F19F80E18D45
:10539000A28DE08D00281CBF511A5FEA014000F089
:1053A00082815EE8030F17E0080600F1A48048063A
:1053B00040F17981DEF80C0020F04000CEF80C00BE
:1053C000202084F84100204602B0BDE8104001F0E2
:1053D00085B8206850E8030F226820F4907042E8F6
:1053E0000303DBB1206850E8030F226820F49070BB
:1053F00042E8030393B1206850E8030F226820F4C9
:10540000907042E803034BB1206850E8030F226814
:1054100020F4907042E80303002BDAD1206850E8B2
:10542000050F226820F0010042E80503DBB1206887
:1054300050E8050F226820F0010042E8050393B10F
:10544000206850E8050F226820F0010042E80503BB
:105450004BB1206850E8050F226820F0010042E8B7
:105460000503002BDAD1202084F8420000202063BD
:10547000206850E8030F226820F0100042E8030380
:10548000DBB1206850E8030F226820F0100042E8EA
:10549000030393B1206850E8030F226820F0100046
:1054A00042E803034BB1206850E8030F226820F064
:1054B000100042E80303002BDAD1022089B26063B6
:1054C000204602B0BDE81040FFF734BEE26B106822
:1054D000436899B2002900F0E680B4F82CC0614519
:1054E00080F0E180E385D069B0F5807F00F0C28074
:1054F0005EE8030F23E094F84100212840F0D380B8
:10550000A068B0F5805F03D12069002800F0BE805C
:10551000206A411C21620078CEF80400BEE02046DB
:1055200002B0BDE81040FFF707BE2046FFF704FEBB
:105530000020606402B010BD206850E8030F2168AD
:1055400020F4807041E80302DAB1206850E8030FCC
:10555000216820F4807041E8030292B1206850E88D
:10556000030F216820F4807041E803024AB12068EB
:1055700050E8030F216820F4807041E80302002AFC
:10558000DAD1206850E8050F216820F0010041E8D9
:105590000502DAB1206850E8050F216820F001000B
:1055A00041E8050292B1206850E8050F216820F01B
:1055B000010041E805024AB1206850E8050F216862
:1055C00020F0010041E80502002ADAD1206850E805
:1055D000050F216820F0400041E80502DAB120689B
:1055E00050E8050F216820F0400041E8050292B123
:1055F000206850E8050F216820F0400041E80502CE
:105600004AB1206850E8050F216820F0400041E8C9
:105610000502002ADAD1202084F84200002020630D
:10562000206850E8030F216820F0100041E80302D1
:10563000DAB1206850E8030F216820F0100041E83B
:10564000030292B1206850E8030F216820F0100097
:1056500041E803024AB1206850E8030F216820F0B6
:10566000100041E80302002ADAD1E06BFCF724F9CC
:10567000B4F82CC002206063E08DACEB000081B276
:10568000204602B0BDE81040FFF754BD206A30F854
:10569000021B6FF35F21CEF804102062E08C01380A
:1056A000E084000401D002B010BDDEF80C0020F050
:1056B0008000CEF80C00DEF80C0040F04000CEF880
:1056C0000C0002B010BD0000002804BF012070478C
:1056D00010B5044690F8410028B9002084F8400035
:1056E000204600F021F8242084F841002068C16899
:1056F00021F40051C160204602F002F920680169DE
:1057000021F490410161416921F02A014161C168A0
:1057100041F40051C16000202021606484F84110F0
:1057200084F84210606310BD70B586B0002644F264
:10573000004104460596CDE90366CDE90166C4F251
:1057400000010068884230D041F20001C4F201013A
:1057500088427AD143F6300100200090C4F2020161
:105760004A6942F010024A614A6902F0100200924E
:10577000009A00900A6842F001020A60096801F08C
:10578000010100910099072105910321CDE9030151
:10579000022001A902904FF4C06001900020C4F2E1
:1057A0000200FCF7DFFA06B070BD43F63000009649
:1057B000C4F20200016941F400310161016901F4A0
:1057C0000031009100990096016841F001010160EB
:1057D00001A9006800F001000090009807200590E2
:1057E0000320CDE90360022002900C2001900020EC
:1057F000C4F20200FCF7B6FA42F6742546F28802BB
:105800004FF480304FF00061C2F20005C4F2020292
:10581000C5E908064FF48060C5E90021C5E90266C4
:10582000C5E904062846C5E90666FCF783F90028A1
:1058300018BFFBF7C1FF262000210022E563AC63FF
:10584000FDF7F4F92620FDF7E1F906B070BD000080
:10585000B0B582B0044690F8420020281EBF022056
:1058600002B0B0BD134600290A464FF0010018BF30
:10587000002B01D102B0B0BD0025222047F20D510E
:1058800047F2F17C25636564A385A26284F8420037
:10589000C0F60001C0F6000CE06BC0E9131547F23A
:1058A0009161C0F60001C0E90F1C21680431FCF7CA
:1058B000F5F901952068016801914168019101990C
:1058C000216911B926E000BF206850E8030F216864
:1058D00040F4807041E80302E2B1206850E8030F11
:1058E000216840F4807041E803029AB1206850E8D2
:1058F000030F216840F4807041E8030252B1206830
:1059000050E8030F216840F4807041E80302002A48
:10591000DAD100BF206850E8050F216840F001008F
:1059200041E80502E2B1206850E8050F216840F027
:10593000010041E805029AB1206850E8050F21688E
:1059400040F0010041E8050252B1206850E8050F1F
:10595000216840F0010041E80502002ADAD100BFC9
:10596000206850E8050F216840F0400041E805023A
:10597000F2B1206850E8050F216840F0400041E88E
:10598000050292B1206850E8050F216840F0400000
:1059900041E805024AB1206850E8050F216840F04F
:1059A000400041E80502002ADAD1002002B0B0BD73
:1059B000002002B0B0BD000044F200410068C4F213
:1059C0000001884218BF70472DE9F04F81B02DEDDE
:1059D0000A8B8EB041F2CC4BC2F2000B9BF85C00FC
:1059E000302843D1DBF8501002293FD10BF15D0084
:1059F00009F062FACBF85400016809B94068A8B10F
:105A000001EB8100800000EE100AB8EEC00A2FF012
:105A1000B3FFDBF85400406800EB80004042800098
:105A200000EE100AB8EEC00A30F032F842F6D83074
:105A3000C2F20000FEF7FEF900F035BC00BF00BF67
:105A4000000000000000E03FCDCC4CBF00BF00BF15
:105A500054E3A59BC4A038403F355EBA490C13C03F
:105A6000CDCC4C3E000000000000C8424C2800F0A5
:105A7000C582742800F0D782772840F0148441F260
:105A800048590BF15C0AC2F200095046D9F80410DB
:105A90008847D9F80810CBF8180050468847441CAE
:105AA0000546204642F053FC1FED1B0B53EC102B18
:105AB00042F0F0FC9BED060A1FED1D1A06460F464C
:105AC000B8EEC00A20EE010A10EE100A42F0D8FF2C
:105AD00002460B463046394642F0BAF90646DBF834
